:100000000C942A000C9447000C9447000C94470071
:100010000C9447000C9447000C9447000C940E0B72
:100020000C943B0B0C94E10A0C9447000C94470091
:100030000C9447000C9447000C9447000C94470024
:100040000C9447000C9447000C9447000C94470014
:100050000C94470011241FBECFE5D8E0DEBFCDBF12
:1000600012E0A0E6B0E0E0EEFAE402C005900D92E6
:10007000AC30B107D9F712E0ACE0B2E001C01D929C
:10008000AC31B107E1F70E948B240C946E250C94DF
:100090000000EF92FF920F931F937B018C0120E0F1
:1000A00030E040E05FE40E94F50388238CF0C80153
:1000B000B70120E030E040E05FE40E94C1010E940F
:1000C000B3049B01AC01205030404040504806C072
:1000D000C801B7010E94B3049B01AC01B901CA0178
:1000E0001F910F91FF90EF900895A0E0B0E0EBE733
:1000F000F0E00C94F224DC012B01FA019C91923087
:1001000008F439C1EB018881823008F433C194309E
:1001100069F4843009F02FC111969C91119789815F
:10012000981709F428C1A5EAB0E025C1843009F484
:1001300021C18230A9F4923009F01DC19A01AD01AC
:1001400088E0EA010990AE01E90109929E0181501F
:10015000C1F7E201898111969C918923818308C1AD
:10016000923009F407C112962D903C901397EB0141
:100170008A819B811496AD90BD90CD90DC901797AD
:10018000EC80FD800E811F819101281B390BB90184
:1001900037FF04C066277727621B730B6032710537
:1001A0000CF061C0121613066CF537014801062EDB
:1001B00004C096948794779467940A94D2F721E0C8
:1001C00030E040E050E004C0220F331F441F551FB1
:1001D0006A95D2F721503040404050402E213F21B7
:1001E00040235123211531054105510521F021E01E
:1001F00030E040E050E079018A01E628F72808293C
:1002000019293CC0232BD1F1260E371E350146019A
:10021000062E04C096948794779467940A94D2F734
:1002200021E030E040E050E004C0220F331F441FC3
:10023000551F6A95D2F721503040404050402A2146
:100240003B214C215D21211531054105510521F04E
:1002500021E030E040E050E059016A01A628B728CB
:10026000C828D9280BC0821593052CF01C01AA249C
:10027000BB24650103C0EE24FF24870111969C91E5
:10028000D20111968C91981709F445C0992339F041
:10029000A80197012A193B094C095D0906C0A6016E
:1002A00095012E193F09400B510B57FD08C01182D3
:1002B0003382228224833583468357831DC081E0A5
:1002C00081833382228288279927DC01821B930B4A
:1002D000A40BB50B84839583A683B7830DC0220F2F
:1002E000331F441F551F24833583468357838281E0
:1002F000938101979383828324813581468157813D
:10030000DA01C9010197A109B1098F5F9F4FAF4F72
:10031000BF4328F30BC0918333822282EA0CFB1C7B
:100320000C1D1D1DE482F5820683178383E0808304
:10033000248135814681578157FF1AC0C901AA27F8
:1003400097FDA095BA2F81709070A070B0705695EF
:10035000479537952795822B932BA42BB52B848318
:100360009583A683B7838281938101969383828349
:10037000DF0101C0D201CD01CDB7DEB7E2E10C94BF
:100380000E25A0E2B0E0E7ECF1E00C94FE246983D6
:100390007A838B839C832D833E834F835887E9E048
:1003A000EE2EF12CEC0EFD1ECE010196B7010E943F
:1003B000A4068E010F5E1F4FCE010596B8010E9464
:1003C000A4068A8991E089278A8BC701B801AE010A
:1003D000475E5F4F0E9475000E94CF05A096E6E041
:1003E0000C941A25A0E2B0E0E8EFF1E00C94FE24B2
:1003F00069837A838B839C832D833E834F835887C5
:10040000F9E0EF2EF12CEC0EFD1ECE010196B701A6
:100410000E94A4068E010F5E1F4FCE010596B80103
:100420000E94A406C701B801AE01475E5F4F0E945B
:1004300075000E94CF05A096E6E00C941A25A0E274
:10044000B0E0E5E2F2E00C94F22469837A838B83D6
:100450009C832D833E834F835887CE010196BE0136
:10046000675F7F4F0E94A406CE010596BE016F5EB6
:100470007F4F0E94A4069985923088F08989823046
:10048000C8F0943019F4823051F404C0843029F457
:10049000923081F485EA90E0C6C0923049F420E0C1
:1004A0009A858A89981321E02A87CE010996BBC0D4
:1004B000823049F420E09A858A89981321E02A8BBA
:1004C000CE014196B0C02D843E844F8458886D88FB
:1004D0007E888F88988CEE24FF248701AA24BB2471
:1004E000650140E050E060E070E0E0E0F0E0C10174
:1004F00081709070892BE9F0E60CF71C081D191D1E
:100500009A01AB012A0D3B1D4C1D5D1D80E090E062
:10051000A0E0B0E0E614F7040805190520F481E036
:1005200090E0A0E0B0E0BA01A901480F591F6A1F8E
:100530007B1FAA0CBB1CCC1CDD1C97FE08C081E0F5
:1005400090E0A0E0B0E0A82AB92ACA2ADB2A3196B6
:10055000E032F10549F0660C771C881C991C569412
:10056000479437942794C3CFFA85EA892B893C892D
:100570008B859C85280F391F2E5F3F4F17C0CA01FE
:1005800081709070892B61F016950795F794E79428
:1005900080E090E0A0E0B0E8E82AF92A0A2B1B2BC3
:1005A00076956795579547952F5F3F4F77FDE7CF36
:1005B0000CC0440F551F661F771F17FD4160EE0CDE
:1005C000FF1C001F111F21503040403090E05907A0
:1005D00090E0690790E4790760F32B8F3C8FDB0193
:1005E000CA018F779070A070B07080349105A1051A
:1005F000B10561F447FD0AC0E114F10401051105DC
:1006000029F0405C5F4F6F4F7F4F40781A8EFE1786
:1006100011F081E08A8F4D8F5E8F6F8F78A383E01A
:10062000898FCE0149960E94CF05A096E2E10C94F5
:100630000E25A8E1B0E0EFE1F3E00C94FA24698321
:100640007A838B839C832D833E834F835887B9E0C5
:10065000EB2EF12CEC0EFD1ECE010196B7010E948F
:10066000A4068E010F5E1F4FCE010596B8010E94B1
:10067000A4062985223008F47EC03989323010F46E
:10068000B8017CC08A859A8989278A87243011F02D
:10069000223031F4231709F06EC065EA70E06EC0B5
:1006A000343039F41D861E861F86188A1C861B86E8
:1006B00004C0323021F484E08987B7015FC02B8504
:1006C0003C858B899C89281B390B3C872B87ED84C3
:1006D000FE840F851889AD88BE88CF88D88CEA142F
:1006E000FB040C051D0540F4EE0CFF1C001F111F40
:1006F000215030403C872B8720E030E040E050E044
:1007000080E090E0A0E0B0E460E070E0EA14FB0478
:100710000C051D0540F0282B392B4A2B5B2BEA18C2
:10072000FB080C091D09B695A79597958795EE0CC2
:10073000FF1C001F111F6F5F7F4F6F31710531F775
:10074000DA01C9018F779070A070B0708034910584
:10075000A105B10561F427FD0AC0E114F10401050A
:10076000110529F0205C3F4F4F4F5F4F20782D87B8
:100770003E874F87588BBE01675F7F4FCB010E943A
:10078000CF056896EAE00C941625A8E1B0E0EBEC02
:10079000F3E00C94FE2469837A838B839C832D83FE
:1007A0003E834F83588789E0E82EF12CEC0EFD1E26
:1007B000CE010196B7010E94A4068E010F5E1F4F65
:1007C000CE010596B8010E94A4068985823040F0CA
:1007D0008989823028F0C701B8010E941C0701C036
:1007E0008FEF6896E6E00C941A25A8E1B0E0EBEFF5
:1007F000F3E00C94FE2469837A838B839C832D839E
:100800003E834F83588789E0E82EF12CEC0EFD1EC5
:10081000CE010196B7010E94A4068E010F5E1F4F04
:10082000CE010596B8010E94A4068985823040F069
:100830008989823028F0C701B8010E941C0701C0D5
:100840008FEF6896E6E00C941A25A8E1B0E0EBE2A1
:10085000F4E00C94FE2469837A838B839C832D833C
:100860003E834F83588789E0E82EF12CEC0EFD1E65
:10087000CE010196B7010E94A4068E010F5E1F4FA4
:10088000CE010596B8010E94A4068985823040F009
:100890008989823028F0C701B8010E941C0701C075
:1008A00081E06896E6E00C941A25A8E0B0E0EBE55C
:1008B000F4E00C94FB249B01AC0183E08983DA0112
:1008C000C9018827B7FD83959927AA27BB27B82E8A
:1008D000211531054105510519F482E089833AC09B
:1008E0008823A9F0203080E0380780E0480780E8BE
:1008F000580729F460E070E080E09FEC30C0EE24FF
:10090000FF248701E21AF30A040B150B02C07901D8
:100910008A018EE1C82ED12CDC82CB82ED82FE8250
:100920000F831887C801B7010E9480050197181628
:10093000190684F4082E04C0EE0CFF1C001F111FC2
:100940000A94D2F7ED82FE820F831887C81AD90A5B
:10095000DC82CB82BA82CE0101960E94CF05289616
:10096000E9E00C941725ACE0B0E0E9EBF4E00C947E
:10097000022569837A838B839C83CE010196BE0115
:100980006B5F7F4F0E94A4068D81823061F18230BF
:1009900050F1843021F48E81882351F12EC02F81B3
:1009A000388537FD20C06E812F3131051CF066235C
:1009B000F9F023C08EE190E0821B930B29853A85E4
:1009C0004B855C8504C056954795379527958A9544
:1009D000D2F76623B1F050954095309521953F4F61
:1009E0004F4F5F4F0EC020E030E040E050E009C0C4
:1009F0002FEF3FEF4FEF5FE704C020E030E040E033
:100A000050E8B901CA012C96E2E00C941E25A8E03A
:100A1000B0E0EDE0F5E00C94FA247B018C01611567
:100A200071058105910519F482E0898360C083E036
:100A300089838EE1C82ED12CDC82CB82ED82FE82AE
:100A40000F831887C801B7010E948005FC01319708
:100A5000F7FF3BC0222733272E1B3F0B57016801AE
:100A6000022E04C0D694C794B794A7940A94D2F7E0
:100A700040E050E060E070E081E090E0A0E0B0E0B5
:100A800004C0880F991FAA1FBB1F2A95D2F7019790
:100A9000A109B1098E219F21A023B1230097A105AF
:100AA000B10521F041E050E060E070E04A295B29A7
:100AB0006C297D294D835E836F8378878EE190E07A
:100AC0008E1B9F0B9C838B8312C0309781F00E2E60
:100AD00004C0EE0CFF1C001F111F0A94D2F7ED8218
:100AE000FE820F831887CE1ADF0ADC82CB821A823D
:100AF000CE0101960E94CF052896EAE00C941625B7
:100B0000EF92FF920F931F937B018C0180E0E81618
:100B100080E0F80681E0080780E0180788F48FEF8E
:100B2000E816F1040105110531F028F088E090E0A5
:100B3000A0E0B0E017C080E090E0A0E0B0E012C01C
:100B400080E0E81680E0F80680E0080781E01807FA
:100B500028F088E190E0A0E0B0E004C080E190E0FF
:100B6000A0E0B0E020E230E040E050E0281B390B8C
:100B70004A0B5B0B04C016950795F794E7948A958A
:100B8000D2F7F701E355FF4F8081281B3109410956
:100B90005109C9011F910F91FF90EF900895DF92C5
:100BA000EF92FF920F931F93FC01E480F580068182
:100BB0001781D1808081823048F480E090E0A0E10C
:100BC000B0E0E82AF92A0A2B1B2BA5C0843009F4CF
:100BD0009FC0823021F4EE24FF24870105C0E11478
:100BE000F1040105110519F4E0E0F0E096C062811E
:100BF00073819FEF623879070CF05BC022E83FEF0A
:100C0000261B370B2A3131052CF020E030E040E084
:100C100050E02AC0B801A701022E04C0769567955E
:100C2000579547950A94D2F781E090E0A0E0B0E0B4
:100C300004C0880F991FAA1FBB1F2A95D2F70197DE
:100C4000A109B1098E219F21A023B1230097A105FD
:100C5000B10521F081E090E0A0E0B0E09A01AB01A5
:100C6000282B392B4A2B5B2BDA01C9018F77907027
:100C7000A070B07080349105A105B10539F427FF4B
:100C800009C0205C3F4F4F4F5F4F04C0215C3F4F76
:100C90004F4F5F4FE0E0F0E02030A0E03A07A0E0E7
:100CA0004A07A0E45A0710F0E1E0F0E079018A0178
:100CB00027C06038710564F5FB01E158FF4FD8018A
:100CC000C7018F779070A070B07080349105A10536
:100CD000B10539F4E7FE0DC080E490E0A0E0B0E09B
:100CE00004C08FE390E0A0E0B0E0E80EF91E0A1F18
:100CF0001B1F17FF05C016950795F794E7943196CB
:100D000087E016950795F794E7948A95D1F705C083
:100D1000EE24FF248701EFEFF0E06E2F6795662742
:100D20006795902F9F77D794DD24D7948E2F869543
:100D3000492F462B582F5D29B701CA011F910F91EA
:100D4000FF90EF90DF900895FC01DB01408151811D
:100D50002281622F6F7770E0221F2227221F93814A
:100D6000892F880F822B282F30E0991F9927991FF0
:100D700011969C93119721153105A9F5411551053F
:100D80006105710511F482E037C082E89FEF139688
:100D90009C938E9312979A01AB0167E0220F331F49
:100DA000441F551F6A95D1F783E08C930DC0220F25
:100DB000331F441F551F12968D919C9113970197D5
:100DC00013969C938E931297203080E0380780E032
:100DD000480780E4580758F314962D933D934D939C
:100DE0005C93179708952F3F310579F4411551050C
:100DF0006105710519F484E08C93089564FF03C0C4
:100E000081E08C9312C01C9210C02F573040139673
:100E10003C932E93129783E08C9387E0440F551FE9
:100E2000661F771F8A95D1F7706414964D935D9372
:100E30006D937C93179708951F93DC01FB019C91A0
:100E4000923008F447C08081823008F443C0943067
:100E500051F411961C91843099F58181682F70E0CE
:100E6000611B71093FC0843021F0923031F482302F
:100E7000B9F18181882389F12DC011961C911197B8
:100E80008230F1F081811817D9F412962D913C919E
:100E90001397828193818217930794F0281739075B
:100EA000BCF014968D919D910D90BC91A02D248144
:100EB000358146815781281739074A075B0718F49F
:100EC000112341F00AC082179307A407B50740F425
:100ED000112319F061E070E005C06FEF7FEF02C0F1
:100EE00060E070E0CB011F910895DF93CF9300D0B5
:100EF00000D00F92CDB7DEB789836A834B838A8196
:100F0000883008F0D5C08981843008F0D1C089814B
:100F1000282F30E03D832C838C819D818130910589
:100F200009F443C02C813D81223031052CF48C81A1
:100F30009D81009771F0BCC02C813D81223031052C
:100F400009F45FC08C819D818330910509F485C0CF
:100F5000AFC08B818130A1F4AAE3B0E0EAE3F0E016
:100F60008081482F8A81282F30E081E090E0022E96
:100F700002C0880F991F0A94E2F7842B8C9398C0C3
:100F8000AAE3B0E0EAE3F0E08081482F8A81282FCD
:100F900030E081E090E0022E02C0880F991F0A9491
:100FA000E2F7809584238C9383C08B818130A1F4F8
:100FB000A7E3B0E0E7E3F0E08081482F8A81282FA3
:100FC00030E081E090E0022E02C0880F991F0A9461
:100FD000E2F7842B8C936CC0A7E3B0E0E7E3F0E08A
:100FE0008081482F8A81282F30E081E090E0022E16
:100FF00002C0880F991F0A94E2F7809584238C938E
:1010000057C08B818130A1F4A4E3B0E0E4E3F0E0C9
:101010008081482F8A81282F30E081E090E0022EE5
:1010200002C0880F991F0A94E2F7842B8C9340C06A
:10103000A4E3B0E0E4E3F0E08081482F8A81282F28
:1010400030E081E090E0022E02C0880F991F0A94E0
:10105000E2F7809584238C932BC08B818130A1F49F
:10106000A1E3B0E0E1E3F0E08081482F8A81282FFE
:1010700030E081E090E0022E02C0880F991F0A94B0
:10108000E2F7842B8C9314C0A1E3B0E0E1E3F0E03D
:101090008081482F8A81282F30E081E090E0022E65
:1010A00002C0880F991F0A94E2F7809584238C93DD
:1010B0000F900F900F900F900F90CF91DF910895A8
:1010C000DF93CF9300D000D00F92CDB7DEB78983E6
:1010D0006A834B838A81883008F0D5C08981843047
:1010E00008F0D1C08981282F30E03D832C838C818A
:1010F0009D818130910509F443C02C813D812230CE
:1011000031052CF48C819D81009771F0BCC02C813D
:101110003D812230310509F45FC08C819D8183308F
:10112000910509F485C0AFC08B818130A1F4ABE398
:10113000B0E0EBE3F0E08081482F8A81282F30E097
:1011400081E090E0022E02C0880F991F0A94E2F716
:10115000842B8C9398C0ABE3B0E0EBE3F0E08081AC
:10116000482F8A81282F30E081E090E0022E02C0D3
:10117000880F991F0A94E2F7809584238C9383C08B
:101180008B818130A1F4A8E3B0E0E8E3F0E0808156
:10119000482F8A81282F30E081E090E0022E02C0A3
:1011A000880F991F0A94E2F7842B8C936CC0A8E3F4
:1011B000B0E0E8E3F0E08081482F8A81282F30E01A
:1011C00081E090E0022E02C0880F991F0A94E2F796
:1011D000809584238C9357C08B818130A1F4A5E343
:1011E000B0E0E5E3F0E08081482F8A81282F30E0ED
:1011F00081E090E0022E02C0880F991F0A94E2F766
:10120000842B8C9340C0A5E3B0E0E5E3F0E080815F
:10121000482F8A81282F30E081E090E0022E02C022
:10122000880F991F0A94E2F7809584238C932BC032
:101230008B818130A1F4A2E3B0E0E2E3F0E08081B1
:10124000482F8A81282F30E081E090E0022E02C0F2
:10125000880F991F0A94E2F7842B8C9314C0A2E3A1
:10126000B0E0E2E3F0E08081482F8A81282F30E06F
:1012700081E090E0022E02C0880F991F0A94E2F7E5
:10128000809584238C930F900F900F900F900F9068
:10129000CF91DF910895DF93CF9300D000D00F92CC
:1012A000CDB7DEB789836A838A81883018F4898153
:1012B000843010F01D82AFC08981282F30E03C833C
:1012C0002B834B815C8141305105D9F18B819C810D
:1012D0008230910534F42B813C812115310571F068
:1012E00099C04B815C814230510509F44DC08B811E
:1012F0009C818330910509F46AC08CC0E9E3F0E079
:101300008081482F50E08A81282F30E081E090E0F2
:1013100002C0880F991F2A95E2F79A0128233923E2
:101320008A81882F90E0A90102C0559547958A953A
:10133000E2F7CA01009719F051E05D836CC01D828D
:101340006AC0E6E3F0E08081482F50E08A81282FD0
:1013500030E081E090E002C0880F991F2A95E2F703
:101360009A01282339238A81882F90E0A90102C09D
:10137000559547958A95E2F7CA01009719F051E013
:101380005D8349C01D8247C0E3E3F0E08081482FC0
:1013900050E08A81282F30E081E090E002C0880F81
:1013A000991F2A95E2F79A01282339238A81882FE9
:1013B00090E0A90102C0559547958A95E2F7CA01C8
:1013C000009719F051E05D8326C01D8224C0E0E340
:1013D000F0E08081482F50E08A81282F30E081E0C2
:1013E00090E002C0880F991F2A95E2F79A012823FE
:1013F00039238A81882F90E0A90102C0559547952D
:101400008A95E2F7CA01009719F051E05D8303C0A5
:101410001D8201C01D828D810F900F900F900F9043
:101420000F90CF91DF910895DF93CF9300D000D03C
:10143000CDB7DEB789836A838981843090F589814D
:10144000282F30E03C832B838B819C818130910558
:10145000D1F02B813C81223031052CF48B819C8191
:10146000009761F01EC02B813C812230310581F054
:101470008B819C818330910581F013C0EAE3F0E019
:101480008A8180830EC0E7E3F0E08A81808309C00F
:10149000E4E3F0E08A81808304C0E1E3F0E08A8144
:1014A00080830F900F900F900F90CF91DF91089550
:1014B000DF93CF9300D000D0CDB7DEB789836A83A6
:1014C0008981282F30E03C832B838B819C81813064
:1014D0009105D1F02B813C81223031052CF48B8198
:1014E0009C81009761F01EC02B813C812230310528
:1014F00081F08B819C818330910581F013C0EBE3F7
:10150000F0E08A8180830EC0E8E3F0E08A81808386
:1015100009C0E5E3F0E08A81808304C0E2E3F0E003
:101520008A8180830F900F900F900F90CF91DF9161
:101530000895DF93CF9300D000D0CDB7DEB7898375
:101540008981843010F01C8234C08981282F30E0DA
:101550003B832A838A819B8181309105D1F02A8146
:101560003B81223031052CF48A819B81009761F008
:101570001FC02A813B812230310581F08A819B8105
:101580008330910581F014C0E9E3F0E090819C8301
:1015900010C0E6E3F0E020812C830BC0E3E3F0E031
:1015A00030813C8306C0E0E3F0E080818C8301C0A1
:1015B0001C828C810F900F900F900F90CF91DF9134
:1015C00008951F920F920FB60F9211242F933F93FD
:1015D0004F935F936F937F938F939F93AF93BF933B
:1015E000EF93FF93DF93CF93CDB7DEB7E0910C027B
:1015F000F0910D020995CF91DF91FF91EF91BF918D
:10160000AF919F918F917F916F915F914F913F919A
:101610002F910F900FBE0F901F9018951F920F9251
:101620000FB60F9211242F933F934F935F936F93B5
:101630007F938F939F93AF93BF93EF93FF93DF932A
:10164000CF93CDB7DEB7E0910C02F0910D02099572
:10165000CF91DF91FF91EF91BF91AF919F918F91CA
:101660007F916F915F914F913F912F910F900FBE9E
:101670000F901F9018951F920F920FB60F92112482
:10168000DF93CF93CDB7DEB7CF91DF910F900FBE31
:101690000F901F901895EF92FF920F931F93DF9377
:1016A000CF93CDB7DEB728970FB6F894DEBF0FBE45
:1016B000CDBF9E838D83ED81FE818081282F30E018
:1016C00038872F838F8198858130910509F445C033
:1016D0002F813885223031052CF48F819885009731
:1016E00071F07AC12F8138852230310509F471C03B
:1016F0008F8198858330910509F4CFC06DC1EFE4E7
:10170000F0E080818F738083EFE4F0E080818F7C54
:101710008083EFE4F0E0808188608083EFE4F0E094
:10172000808184608083EFE4F0E080818E7F80831D
:10173000EFE4F0E080818D7F8083EEE4F0E0808153
:10174000877F8083EEE4F0E080818F7E8083E9E50F
:10175000F0E08081846080833FC1EFE4F0E080812D
:101760008F738083EFE4F0E080818F7C8083EFE4EF
:10177000F0E0808188608083EFE4F0E08081846025
:101780008083EFE4F0E080818E7F8083EFE4F0E0FF
:1017900080818D7F8083EEE4F0E0808188608083AB
:1017A000EEE4F0E080818F7E8083E9E5F0E08081E7
:1017B00080618083E9E5F0E0808188608083AAE42D
:1017C000B0E0ED81FE818481958111969C938E938A
:1017D00003C1E1E3F0E0808180618083EFE4F0E029
:1017E00080818F7380688083EFE4F0E080818F7C5C
:1017F00080628083EFE4F0E08081877F8083EFE484
:10180000F0E080818B7F8083EFE4F0E08081816075
:101810008083EFE4F0E0808182608083EEE4F0E09A
:10182000808188608083EEE4F0E080818061808345
:10183000AAE4B0E0ED81FE818481958111969C93AC
:101840008E93ED81FE8182859385A485B585BC014B
:10185000CD010E9449007B018C01EAE4F0E0808127
:1018600091819C0140E050E0C801B7010E94B12481
:10187000DC01CB0124E630E040E050E0BC01CD01CA
:101880000E94D024DA01C9019A838983E8E4F0E058
:1018900089819A81918380839FC0E1E3F0E0808118
:1018A00080618083E1E3F0E0808180628083EFE407
:1018B000F0E080818F7380688083EFE4F0E08081C6
:1018C0008F7C80628083EFE4F0E08081877F80837B
:1018D000EFE4F0E080818B7F8083EFE4F0E08081B3
:1018E0008E7F8083EFE4F0E0808182608083EEE48D
:1018F000F0E0808188608083EEE4F0E080818061A8
:101900008083A6E4B0E0ED81FE818481958111960B
:101910009C938E93ED81FE81E680F7800085118592
:10192000E6E4F0E080819181CC01A0E0B0E0BC0170
:10193000CD010E9407059B01AC01C801B7010E94BF
:101940001F02DC01CB01BC01CD0120E030E048ECFE
:1019500052E40E941903DC01CB01BC01CD010E94BD
:101960004900DC01CB019C838B83ED81FE81E28405
:10197000F38404851585E6E4F0E080819181CC0153
:10198000A0E0B0E0BC01CD010E9407059B01AC01C5
:10199000C801B7010E941F02DC01CB01BC01CD01CF
:1019A00020E030E048EC52E40E941903DC01CB0156
:1019B000BC01CD010E944900DC01CB019A838983DF
:1019C000EAE4F0E08B819C8191838083E8E4F0E09D
:1019D00089819A8191838083AEE4B0E0ED81FE81BC
:1019E00081818770982F97708C91887F892B8C9339
:1019F000ACE4B0E0ED81FE818281938111969C93ED
:101A00008E9328960FB6F894DEBF0FBECDBFCF9150
:101A1000DF911F910F91FF90EF900895DF93CF9387
:101A2000CDB7DEB7EEE4F0E08081887F8083CF9190
:101A3000DF910895DF93CF9300D0CDB7DEB79A83BF
:101A4000898389819A8190930D0280930C020F9073
:101A50000F90CF91DF910895DF93CF930F92CDB781
:101A6000DEB7898382E0698140E00E9475070F90AC
:101A7000CF91DF910895DF93CF930F92CDB7DEB76B
:101A8000898382E069810E944B090F90CF91DF9199
:101A900008950F931F93DF93CF93CDB7DEB7C3564F
:101AA000D0400FB6F894DEBF0FBECDBFFE01ED599A
:101AB000FF4F808380E061E040E00E946008FE010B
:101AC000E15AFF4F80E090E0A0E8BFE3808391837C
:101AD000A283B3838E01055A1F4FFE01E15AFF4FC7
:101AE000608171818281938120E030E04AE755E492
:101AF0000E941F02DC01CB01F80180839183A28345
:101B0000B383FE01E55AFF4F608171818281938129
:101B100020E030E040E85FE30E942504882344F49D
:101B2000FE01E75AFF4F81E090E09183808364C01B
:101B3000FE01E55AFF4F608171818281938120E02F
:101B40003FEF4FE757E40E94C50318160CF043C05F
:101B5000FE01E15AFF4F608171818281938120E013
:101B600030E040E251E40E941F02DC01CB018E0113
:101B7000075A1F4FBC01CD010E944900DC01CB0177
:101B8000F801918380831FC0FE01E95AFF4F80E96D
:101B900091E091838083FE01E95AFF4F808191811A
:101BA0000197F1F7FE01E95AFF4F91838083DE012F
:101BB000A75ABF4FFE01E75AFF4F808191810197DD
:101BC00011969C938E93FE01E75AFF4F808191817D
:101BD0000097D1F627C08E01075A1F4FFE01E55A24
:101BE000FF4F60817181828193810E944900DC01F5
:101BF000CB01F80191838083DE01AB5ABF4FFE0118
:101C0000E75AFF4F808191818D939C93FE01EB5A9F
:101C1000FF4F808191810197F1F7FE01EB5AFF4F51
:101C20009183808380E062E041E00E946008FE01D1
:101C3000EF5AFF4F80E090E0A0E8BFE380839183FC
:101C4000A283B3838E01035B1F4FFE01EF5AFF4F48
:101C5000608171818281938120E030E04AE755E420
:101C60000E941F02DC01CB01F80180839183A283D3
:101C7000B383FE01E35BFF4F6081718182819381B9
:101C800020E030E040E85FE30E942504882344F42C
:101C9000FE01E55BFF4F81E090E09183808364C0AB
:101CA000FE01E35BFF4F608171818281938120E0BF
:101CB0003FEF4FE757E40E94C50318160CF043C0EE
:101CC000FE01EF5AFF4F608171818281938120E094
:101CD00030E040E251E40E941F02DC01CB018E01A2
:101CE000055B1F4FBC01CD010E944900DC01CB0107
:101CF000F801918380831FC0FE01E75BFF4F80E9FD
:101D000091E091838083FE01E75BFF4F80819181A9
:101D10000197F1F7FE01E75BFF4F91838083DE01BE
:101D2000A55BBF4FFE01E55BFF4F8081918101976D
:101D300011969C938E93FE01E55BFF4F808191810C
:101D40000097D1F627C08E01055B1F4FFE01E35BB4
:101D5000FF4F60817181828193810E944900DC0183
:101D6000CB01F80191838083DE01A95BBF4FFE01A7
:101D7000E55BFF4F808191818D939C93FE01E95B30
:101D8000FF4F808191810197F1F7FE01E95BFF4FE1
:101D900091838083FE01ED59FF4F8081882F90E071
:101DA0008071907095958795959587959595879570
:101DB00095958795982F80E063E0492F0E946008F1
:101DC000FE01ED59FF4F8081882F90E08072907066
:101DD00095958795959587959595879595958795EB
:101DE00095958795982F80E064E0492F0E946008C0
:101DF000FE01ED59FF4F8081882F90E08074907034
:101E0000082E892F000C881F990B000C881F991F22
:101E1000982F80E065E0492F0E946008FE01ED598F
:101E2000FF4F8081982F991F9927991F80E066E0C6
:101E3000492F0E946008FE01ED5BFF4F80E090E0BB
:101E4000A0E8BFE380839183A283B3838E01015C0A
:101E50001F4FFE01ED5BFF4F608171818281938195
:101E600020E030E04AE755E40E941F02DC01CB018C
:101E7000F80180839183A283B383FE01FF96608182
:101E800071818281938120E030E040E85FE30E942D
:101E9000250488232CF481E090E09EAF8DAF46C0EE
:101EA000FE01FF96608171818281938120E03FEF86
:101EB0004FE757E40E94C503181664F5FE01ED5B79
:101EC000FF4F608171818281938120E030E040E2A8
:101ED00051E40E941F02DC01CB01BC01CD010E9434
:101EE0004900DC01CB019EAF8DAF0FC080E991E0CE
:101EF0009CAF8BAF8BAD9CAD0197F1F79CAF8BAFD7
:101F00008DAD9EAD01979EAF8DAF8DAD9EAD00970F
:101F100069F716C0FE01FF9660817181828193810D
:101F20000E944900DC01CB019EAF8DAF8DAD9EAD0F
:101F30009AAF89AF89AD9AAD0197F1F79AAF89AFA2
:101F400080E062E040E00E94600880E090E0A0E86D
:101F5000BFE38DAB9EABAFABB8AF6DA97EA98FA928
:101F600098AD20E030E04AE755E40E941F02DC0112
:101F7000CB0189AB9AABABABBCAB69A97AA98BA9F6
:101F80009CA920E030E040E85FE30E94250488231C
:101F90002CF481E090E098AB8FA73FC069A97AA9A3
:101FA0008BA99CA920E03FEF4FE757E40E94C503AF
:101FB00018164CF56DA97EA98FA998AD20E030E0E8
:101FC00040E251E40E941F02DC01CB01BC01CD01C3
:101FD0000E944900DC01CB0198AB8FA70FC080E9BC
:101FE00091E09EA78DA78DA59EA50197F1F79EA7CD
:101FF0008DA78FA598A9019798AB8FA78FA598A9B2
:10200000009769F714C069A97AA98BA99CA90E94B5
:102010004900DC01CB0198AB8FA78FA598A99CA79D
:102020008BA78BA59CA50197F1F79CA78BA780E0B8
:1020300062E041E00E94600880E090E0A0E8BFE339
:102040008FA398A7A9A7BAA76FA178A589A59AA5D4
:1020500020E030E04AE755E40E941F02DC01CB019A
:102060008BA39CA3ADA3BEA36BA17CA18DA19EA1BC
:1020700020E030E040E85FE30E94250488232CF450
:1020800081E090E09AA389A33FC06BA17CA18DA1C0
:102090009EA120E03FEF4FE757E40E94C5031816CA
:1020A0004CF56FA178A589A59AA520E030E040E223
:1020B00051E40E941F02DC01CB01BC01CD010E9452
:1020C0004900DC01CB019AA389A30FC080E991E00C
:1020D00098A38F8F8F8D98A10197F1F798A38F8F79
:1020E00089A19AA101979AA389A389A19AA100978E
:1020F00069F714C06BA17CA18DA19EA10E9449002B
:10210000DC01CB019AA389A389A19AA19E8F8D8F0F
:102110008D8D9E8D0197F1F79E8F8D8FFE01ED596C
:10212000FF4F8081982F917080E063E0492F0E94DB
:102130006008FE01ED59FF4F8081882F90E082708A
:10214000907095958795982F80E064E0492F0E94C4
:102150006008FE01ED59FF4F8081882F90E0847068
:1021600090709595879595958795982F80E065E077
:10217000492F0E946008FE01ED59FF4F8081882F92
:1021800090E0887090709595879595958795959531
:102190008795982F80E066E0492F0E94600880E0D4
:1021A00090E0A0E8BFE3898F9A8FAB8FBC8F698DD9
:1021B0007A8D8B8D9C8D20E030E04AE755E40E94BB
:1021C0001F02DC01CB018D8B9E8BAF8BB88F6D898D
:1021D0007E898F89988D20E030E040E85FE30E949F
:1021E000250488232CF481E090E09C8B8B8B3FC0EE
:1021F0006D897E898F89988D20E03FEF4FE757E406
:102200000E94C50318164CF5698D7A8D8B8D9C8DB7
:1022100020E030E040E251E40E941F02DC01CB01EB
:10222000BC01CD010E944900DC01CB019C8B8B8B52
:102230000FC080E991E09A8B898B89899A890197EF
:10224000F1F79A8B898B8B899C8901979C8B8B8B5F
:102250008B899C89009769F714C06D897E898F8965
:10226000988D0E944900DC01CB019C8B8B8B8B8964
:102270009C89988B8F878F8598890197F1F7988B28
:102280008F8780E062E040E00E94600880E090E09C
:10229000A0E8BFE38B879C87AD87BE876B857C8575
:1022A0008D859E8520E030E04AE755E40E941F02BC
:1022B000DC01CB018F839887A987BA876F817885E6
:1022C00089859A8520E030E040E85FE30E9425049C
:1022D00088232CF481E090E09E838D833FC06F8142
:1022E000788589859A8520E03FEF4FE757E40E9483
:1022F000C50318164CF56B857C858D859E8520E081
:1023000030E040E251E40E941F02DC01CB01BC013D
:10231000CD010E944900DC01CB019E838D830FC05B
:1023200080E991E09C838B838B819C810197F1F7FD
:102330009C838B838D819E8101979E838D838D816C
:102340009E81009769F714C06F81788589859A8589
:102350000E944900DC01CB019E838D838D819E818B
:102360009A83898389819A810197F1F79A83898376
:10237000CD59DF4F0FB6F894DEBF0FBECDBFCF9162
:10238000DF911F910F9108950F931F93DF93CF93C8
:10239000CDB7DEB7C356D0400FB6F894DEBF0FBE40
:1023A000CDBFFE01ED59FF4F808380E061E041E049
:1023B0000E946008FE01E15AFF4F80E090E0A0E833
:1023C000BFE380839183A283B3838E01055A1F4F9D
:1023D000FE01E15AFF4F608171818281938120E08B
:1023E00030E04AE755E40E941F02DC01CB01F8010E
:1023F00080839183A283B383FE01E55AFF4F6081FE
:1024000071818281938120E030E040E85FE30E94A7
:102410002504882344F4FE01E75AFF4F81E090E051
:102420009183808364C0FE01E55AFF4F6081718112
:102430008281938120E03FEF4FE757E40E94C5037C
:1024400018160CF043C0FE01E15AFF4F6081718104
:102450008281938120E030E040E251E40E941F023B
:10246000DC01CB018E01075A1F4FBC01CD010E9438
:102470004900DC01CB01F801918380831FC0FE017C
:10248000E95AFF4F80E991E091838083FE01E95A88
:10249000FF4F808191810197F1F7FE01E95AFF4FCB
:1024A00091838083DE01A75ABF4FFE01E75AFF4F99
:1024B00080819181019711969C938E93FE01E75A3A
:1024C000FF4F808191810097D1F627C08E01075A76
:1024D0001F4FFE01E55AFF4F608171818281938118
:1024E0000E944900DC01CB01F80191838083DE0169
:1024F000AB5ABF4FFE01E75AFF4F808191818D9308
:102500009C93FE01EB5AFF4F808191810197F1F777
:10251000FE01EB5AFF4F9183808380E062E041E04F
:102520000E946008FE01EF5AFF4F80E090E0A0E8B3
:10253000BFE380839183A283B3838E01035B1F4F2C
:10254000FE01EF5AFF4F608171818281938120E00B
:1025500030E04AE755E40E941F02DC01CB01F8019C
:1025600080839183A283B383FE01E35BFF4F60818D
:1025700071818281938120E030E040E85FE30E9436
:102580002504882344F4FE01E55BFF4F81E090E0E1
:102590009183808364C0FE01E35BFF4F60817181A2
:1025A0008281938120E03FEF4FE757E40E94C5030B
:1025B00018160CF043C0FE01EF5AFF4F6081718185
:1025C0008281938120E030E040E251E40E941F02CA
:1025D000DC01CB018E01055B1F4FBC01CD010E94C8
:1025E0004900DC01CB01F801918380831FC0FE010B
:1025F000E75BFF4F80E991E091838083FE01E75B19
:10260000FF4F808191810197F1F7FE01E75BFF4F5A
:1026100091838083DE01A55BBF4FFE01E55BFF4F29
:1026200080819181019711969C938E93FE01E55BC9
:10263000FF4F808191810097D1F627C08E01055B05
:102640001F4FFE01E35BFF4F6081718182819381A7
:102650000E944900DC01CB01F80191838083DE01F7
:10266000A95BBF4FFE01E55BFF4F808191818D9398
:102670009C93FE01E95BFF4F808191810197F1F707
:10268000FE01E95BFF4F91838083FE01ED59FF4F0F
:102690008081882F90E080719070959587959595B1
:1026A00087959595879595958795982F80E063E018
:1026B000492F0E946008FE01ED59FF4F8081882F4D
:1026C00090E08072907095958795959587959595F2
:1026D00087959595879595958795982F80E064E0E7
:1026E000492F0E946008FE01ED59FF4F8081882F1D
:1026F00090E080749070082E892F000C881F990B31
:10270000000C881F991F982F80E065E0492F0E94D8
:102710006008FE01ED59FF4F8081982F991F99277E
:10272000991F80E066E0492F0E946008FE01ED5B82
:10273000FF4F80E090E0A0E8BFE380839183A28315
:10274000B3838E01015C1F4FFE01ED5BFF4F608183
:1027500071818281938120E030E04AE755E40E9454
:102760001F02DC01CB01F80180839183A283B38334
:10277000FE01FF96608171818281938120E030E0CB
:1027800040E85FE30E94250488232CF481E090E078
:102790009EAF8DAF46C0FE01FF9660817181828140
:1027A000938120E03FEF4FE757E40E94C5031816DE
:1027B00064F5FE01ED5BFF4F608171818281938141
:1027C00020E030E040E251E40E941F02DC01CB0136
:1027D000BC01CD010E944900DC01CB019EAF8DAF51
:1027E0000FC080E991E09CAF8BAF8BAD9CAD0197A2
:1027F000F1F79CAF8BAF8DAD9EAD01979EAF8DAFC6
:102800008DAD9EAD009769F716C0FE01FF96608101
:102810007181828193810E944900DC01CB019EAFCE
:102820008DAF8DAD9EAD9AAF89AF89AD9AAD019751
:10283000F1F79AAF89AF80E062E040E00E94600863
:1028400080E090E0A0E8BFE38DAB9EABAFABB8AF4C
:102850006DA97EA98FA998AD20E030E04AE755E444
:102860000E941F02DC01CB0189AB9AABABABBCABC6
:1028700069A97AA98BA99CA920E030E040E85FE330
:102880000E94250488232CF481E090E098AB8FA768
:102890003FC069A97AA98BA99CA920E03FEF4FE727
:1028A00057E40E94C50318164CF56DA97EA98FA99F
:1028B00098AD20E030E040E251E40E941F02DC01CC
:1028C000CB01BC01CD010E944900DC01CB0198ABDA
:1028D0008FA70FC080E991E09EA78DA78DA59EA52B
:1028E0000197F1F79EA78DA78FA598A9019798AB9F
:1028F0008FA78FA598A9009769F714C069A97AA92D
:102900008BA99CA90E944900DC01CB0198AB8FA741
:102910008FA598A99CA78BA78BA59CA50197F1F7DC
:102920009CA78BA780E062E041E00E94600880E005
:1029300090E0A0E8BFE38FA398A7A9A7BAA76FA1CB
:1029400078A589A59AA520E030E04AE755E40E94E1
:102950001F02DC01CB018BA39CA3ADA3BEA36BA183
:102960007CA18DA19EA120E030E040E85FE30E94C1
:10297000250488232CF481E090E09AA389A33FC02A
:102980006BA17CA18DA19EA120E03FEF4FE757E412
:102990000E94C50318164CF56FA178A589A59AA5C4
:1029A00020E030E040E251E40E941F02DC01CB0154
:1029B000BC01CD010E944900DC01CB019AA389A38F
:1029C0000FC080E991E098A38F8F8F8D98A1019718
:1029D000F1F798A38F8F89A19AA101979AA389A350
:1029E00089A19AA1009769F714C06BA17CA18DA160
:1029F0009EA10E944900DC01CB019AA389A389A171
:102A00009AA19E8F8D8F8D8D9E8D0197F1F79E8F50
:102A10008D8FFE01ED59FF4F8081982F917080E0DE
:102A200063E0492F0E946008FE01ED59FF4F80814D
:102A3000882F90E08270907095958795982F80E010
:102A400064E0492F0E946008FE01ED59FF4F80812C
:102A5000882F90E0847090709595879595958795CF
:102A6000982F80E065E0492F0E946008FE01ED5933
:102A7000FF4F8081882F90E08870907095958795A2
:102A80009595879595958795982F80E066E0492FD5
:102A90000E94600880E090E0A0E8BFE3898F9A8FF1
:102AA000AB8FBC8F698D7A8D8B8D9C8D20E030E053
:102AB0004AE755E40E941F02DC01CB018D8B9E8BFF
:102AC000AF8BB88F6D897E898F89988D20E030E03B
:102AD00040E85FE30E94250488232CF481E090E025
:102AE0009C8B8B8B3FC06D897E898F89988D20E070
:102AF0003FEF4FE757E40E94C50318164CF5698D68
:102B00007A8D8B8D9C8D20E030E040E251E40E9474
:102B10001F02DC01CB01BC01CD010E944900DC0198
:102B2000CB019C8B8B8B0FC080E991E09A8B898BBA
:102B300089899A890197F1F79A8B898B8B899C896E
:102B400001979C8B8B8B8B899C89009769F714C0AC
:102B50006D897E898F89988D0E944900DC01CB01A7
:102B60009C8B8B8B8B899C89988B8F878F85988981
:102B70000197F1F7988B8F8780E062E040E00E9438
:102B8000600880E090E0A0E8BFE38B879C87AD877A
:102B9000BE876B857C858D859E8520E030E04AE789
:102BA00055E40E941F02DC01CB018F839887A9871F
:102BB000BA876F81788589859A8520E030E040E882
:102BC0005FE30E94250488232CF481E090E09E833B
:102BD0008D833FC06F81788589859A8520E03FEF9E
:102BE0004FE757E40E94C50318164CF56B857C85AA
:102BF0008D859E8520E030E040E251E40E941F0276
:102C0000DC01CB01BC01CD010E944900DC01CB01FC
:102C10009E838D830FC080E991E09C838B838B81A1
:102C20009C810197F1F79C838B838D819E81019715
:102C30009E838D838D819E81009769F714C06F817B
:102C4000788589859A850E944900DC01CB019E83A5
:102C50008D838D819E819A83898389819A81019751
:102C6000F1F79A838983CD59DF4F0FB6F894DEBF11
:102C70000FBECDBFCF91DF911F910F910895DF93CC
:102C8000CF93CDB7DEB72E970FB6F894DEBF0FBE49
:102C9000CDBF80E061E041E00E94750780E062E026
:102CA00041E00E94750780E090E0A0EAB1E48B87E4
:102CB0009C87AD87BE876B857C858D859E8520E052
:102CC00030E04AE755E40E941F02DC01CB018F830C
:102CD0009887A987BA876F81788589859A8520E04A
:102CE00030E040E85FE30E94250488232CF481E073
:102CF00090E09E838D833FC06F81788589859A851A
:102D000020E03FEF4FE757E40E94C50318164CF54B
:102D10006B857C858D859E8520E030E040E251E426
:102D20000E941F02DC01CB01BC01CD010E944900C1
:102D3000DC01CB019E838D830FC080E991E09C83F1
:102D40008B838B819C810197F1F79C838B838D8191
:102D50009E8101979E838D838D819E81009769F767
:102D600014C06F81788589859A850E944900DC01AD
:102D7000CB019E838D838D819E819A8389838981F6
:102D80009A810197F1F79A83898380E063E041E0BB
:102D90000E94750780E064E041E00E94750780E0D2
:102DA00065E041E00E94750780E066E041E00E9436
:102DB000750783E30E94490D82E30E94490D88E272
:102DC0000E94490D8CE00E94490D81E00E94490D4E
:102DD0002E960FB6F894DEBF0FBECDBFCF91DF9118
:102DE0000895DF93CF9300D000D0CDB7DEB79C839A
:102DF0008B831A8219820FC029813A818B819C8131
:102E0000FC01E20FF31F80810E94C41189819A8125
:102E100001969A83898329813A818B819C81FC0167
:102E2000E20FF31F8081882339F70F900F900F90E6
:102E30000F90CF91DF910895DF93CF9300D000D012
:102E4000CDB7DEB789836A838981282F30E03C8340
:102E50002B838B819C8182309105D9F02B813C8121
:102E60002330310534F48B819C818130910561F0F0
:102E70001FC02B813C812330310581F08B819C81E7
:102E80008430910581F014C08A8180580E94490DD8
:102E900012C08A8180540E94490D0DC08A818057DA
:102EA0000E94490D08C08A8180530E94490D03C0C9
:102EB00080E80E94490D0F900F900F900F90CF91D6
:102EC000DF910895DF93CF9300D000D0CDB7DEB768
:102ED0009A8389836B834C838B816C810E941C173E
:102EE00089819A810E94F1160F900F900F900F9098
:102EF000CF91DF910895DF93CF93CDB7DEB781E017
:102F00000E94490DCF91DF910895DF93CF93CDB704
:102F1000DEB764970FB6F894DEBF0FBECDBF698BE6
:102F20007A8B8B8B9C8B89899A899E012F5F3F4F6F
:102F3000B9014AE050E00E942925CE0101960E9485
:102F4000F11664960FB6F894DEBF0FBECDBFCF91D9
:102F5000DF910895DF93CF930F92CDB7DEB78983CA
:102F600082E0698140E00E9475070F90CF91DF9168
:102F70000895DF93CF930F92CDB7DEB7898382E0B8
:102F800069810E944B090F90CF91DF910895DF93E3
:102F9000CF93CDB7DEB78DEA91E00E944B0BCF9176
:102FA000DF910895DF93CF9300D000D000D0CDB74C
:102FB000DEB78D836E838E81882F90E0AA2797FDE0
:102FC000A095BA2FBC01CD010E945504DC01CB01B4
:102FD000BC01CD0120E030E040EA50E40E941F0235
:102FE000DC01CB01BC01CD0120E030E044E353E43F
:102FF0000E941903DC01CB01BC01CD0120E030E0CF
:1030000040EA50E40E94F201DC01CB0189839A83FB
:10301000AB83BC838D81813069F489819A81AB81D6
:10302000BC818093B3019093B401A093B501B09398
:10303000B6010CC089819A81AB81BC818093B701B4
:103040009093B801A093B901B093BA018DEA91E0D1
:103050000E944B0B26960FB6F894DEBF0FBECDBF75
:10306000CF91DF910895DF93CF930F92CDB7DEB765
:10307000898381E0698141E00E9475078981982FE9
:103080009F5F81E0692F41E00E9475070F90CF910B
:10309000DF910895DF93CF93CDB7DEB7A2970FB638
:1030A000F894DEBF0FBECDBF8D8F4E8F5F8F68A3AC
:1030B00079A32AA38D8D982F9F5F81E0692F4AA164
:1030C0000E946008198E1A8E1B8E1C8ED3C081E060
:1030D0006D8D40E00E94600881E06D8D41E00E94AE
:1030E000600880E090E0A0E8BFE38D8B9E8BAF8B03
:1030F000B88F6D897E898F89988D2BEA3AEA4AEAE2
:1031000050E40E941F02DC01CB01898B9A8BAB8BB0
:10311000BC8B69897A898B899C8920E030E040E802
:103120005FE30E94250488231CF481E0888B91C012
:1031300069897A898B899C8920E030E04FE753E4E4
:103140000E94C50318160CF07BC06D897E898F899B
:10315000988D20E030E04AE754E40E941903DC0136
:10316000CB018C879D87AE87BF876C857D858E85DB
:103170009F8520E030E04AE755E40E941F02DC0111
:10318000CB0188879987AA87BB87688579858A85D7
:103190009B8520E030E040E85FE30E94250488231F
:1031A0002CF481E090E09F838E833FC06885798511
:1031B0008A859B8520E03FEF4FE757E40E94C503D7
:1031C00018164CF56C857D858E859F8520E030E056
:1031D00040E251E40E941F02DC01CB01BC01CD01A1
:1031E0000E944900DC01CB019F838E830FC080E9E0
:1031F00091E09D838C838C819D810197F1F79D8364
:103200008C838E819F8101979F838E838E819F8186
:10321000009769F724C0688579858A859B850E9417
:103220004900DC01CB019F838E838E819F819B832C
:103230008A838A819B810197F1F79B838A830FC0E0
:1032400069897A898B899C890E944900DC01CB01BC
:10325000888B8889898389818A95F1F78983898D0B
:103260009A8DAB8DBC8D0196A11DB11D898F9A8F52
:10327000AB8FBC8F298D3A8D4B8D5C8D8E8D9F8D44
:10328000A8A1B9A1281739074A075B0708F41FCF7F
:10329000A2960FB6F894DEBF0FBECDBFCF91DF91DF
:1032A0000895DF93CF93CDB7DEB76B970FB6F89441
:1032B000DEBF0FBECDBF898F6A8F4B8F898D982F50
:1032C0009F5F81E0692F4A8D0E9460088B8D0E946C
:1032D000B917882309F4C9C081E0698D40E00E94D4
:1032E000600881E0698D41E00E94600880E090E024
:1032F000A0E8BFE38D8B9E8BAF8BB88F6D897E89E5
:103300008F89988D2BEA3AEA4AEA50E40E941F021C
:10331000DC01CB01898B9A8BAB8BBC8B69897A8959
:103320008B899C8920E030E040E85FE30E9425041F
:1033300088231CF481E0888B91C069897A898B8904
:103340009C8920E030E04FE753E40E94C503181643
:103350000CF07BC06D897E898F89988D20E030E0EC
:103360004AE754E40E941903DC01CB018C879D8756
:10337000AE87BF876C857D858E859F8520E030E098
:103380004AE755E40E941F02DC01CB018887998738
:10339000AA87BB87688579858A859B8520E030E090
:1033A00040E85FE30E94250488232CF481E090E04C
:1033B0009F838E833FC0688579858A859B8520E0C1
:1033C0003FEF4FE757E40E94C50318164CF56C8594
:1033D0007D858E859F8520E030E040E251E40E94AB
:1033E0001F02DC01CB01BC01CD010E944900DC01C0
:1033F000CB019F838E830FC080E991E09D838C83F6
:103400008C819D810197F1F79D838C838E819F81B3
:1034100001979F838E838E819F81009769F756CF96
:10342000688579858A859B850E944900DC01CB01EE
:103430009F838E838E819F819B838A838A819B81D8
:103440000197F1F79B838A8341CF69897A898B89B8
:103450009C890E944900DC01CB01888B8889898383
:1034600089818A95F1F7898331CF6B960FB6F894ED
:10347000DEBF0FBECDBFCF91DF910895DF93CF9315
:10348000CDB7DEB780E00E94AA1781E00E94AA179C
:1034900082E00E94AA1783E00E942C0D84E00E9423
:1034A0002C0D85E00E942C0D86E00E942C0D0E94C0
:1034B000C71780E00E94331882E00E94331884E02E
:1034C0000E9433180E943F1610921902109218029F
:1034D000CF91DF910895DF93CF93CDB7DEB70E94F0
:1034E0007B1780E690E061E041E00E94621788E689
:1034F00090E062E041E00E9462170E948C2180E02F
:1035000040E157E260E070E021E00E944A1882E06A
:1035100048ED59E560E070E021E00E944A1880E142
:1035200097E2A0E0B0E080930F0290931002A09386
:103530001102B093120288ED99E5A0E0B0E080930B
:10354000130290931402A0931502B093160281E027
:1035500062E30E94D21784E00E943B0D882351F45D
:1035600085E00E943B0D882329F486E00E943B0DF4
:10357000882389F384E00E943B0D882369F085E06D
:103580000E943B0D882341F086E00E943B0D88237A
:1035900019F410921B023AC084E00E943B0D88236C
:1035A00071F085E00E943B0D882349F486E00E947B
:1035B0003B0D882321F081E080931B0227C084E02B
:1035C0000E943B0D882371F485E00E943B0D882307
:1035D00049F086E00E943B0D882321F082E0809331
:1035E0001B0214C084E00E943B0D882319F285E081
:1035F0000E943B0D882309F4BDCF86E00E943B0D5D
:10360000882309F4B7CF83E080931B0280910E02D8
:103610008F5F80930E0280910E02893029F481E041
:1036200080930E021092170281E090E090931902AD
:1036300080931802CF91DF910895DF93CF9300D04C
:103640000F92CDB7DEB70E947B178EE690E061E067
:1036500041E00E94621788E690E062E041E00E944B
:10366000621780911B02282F30E03B832A838A81D6
:103670009B818130910509F451C12A813B8122301F
:1036800031052CF48A819B81009771F003C42A8153
:103690003B812230310509F403C28A819B8183304A
:1036A000910509F437C3F6C30E947B1787E790E0C2
:1036B00061E041E00E94621780911A0281708823C4
:1036C00009F0B6C060E576E480E090E00E94E12277
:1036D0002091DB013091DC014091DD015091DE0150
:1036E0006091DF017091E0018091E1019091E20130
:1036F0000E94CA2168EC7FEA80E090E00E947D236E
:1037000080911A02816080931A0280911A02887057
:10371000882309F441C02091EB013091EC014091E4
:10372000ED015091EE016091EF017091F0018091F7
:10373000F1019091F2010E94CA2168EC7FEA80E0D9
:1037400090E00E94E1222091DB013091DC01409168
:10375000DD015091DE016091DF017091E001809107
:10376000E1019091E2010E94CA2160E375E780E0E7
:1037700090E00E947D2380911A02877F80931A0235
:103780008091170280618093170282E090E090930D
:103790001902809318027EC380911A0286708230CB
:1037A00009F041C02091E3013091E4014091E5012D
:1037B0005091E6016091E7017091E8018091E90183
:1037C0009091EA010E94CA2168EC7FEA80E090E0D3
:1037D0000E94E1222091DB013091DC014091DD016A
:1037E0005091DE016091DF017091E0018091E10173
:1037F0009091E2010E94CA2160E375E780E090E0C9
:103800000E947D2380911A02897F80931A02809101
:10381000170280618093170282E090E09093190272
:103820008093180237C3109219021092180232C303
:1038300080911A028670882309F02CC360E576E433
:1038400080E090E00E94E1222091E3013091E401C8
:103850004091E5015091E6016091E7017091E80126
:103860008091E9019091EA010E94CA2168EC7FEA07
:1038700080E090E00E947D2380911A02897F84601D
:1038800080931A0280911A028870882309F441C03B
:103890002091EB013091EC014091ED015091EE014E
:1038A0006091EF017091F0018091F1019091F2012E
:1038B0000E94CA2168EC7FEA80E090E00E94E12249
:1038C0002091E3013091E4014091E5015091E6013E
:1038D0006091E7017091E8018091E9019091EA011E
:1038E0000E94CA2160E375E780E090E00E947D239A
:1038F00080911A02877F80931A028091170280625A
:103900008093170282E090E090931902809318024E
:10391000C1C21092190210921802BCC20E947B17F9
:1039200082E890E061E041E00E94621780911A0213
:103930008170882351F160E576E480E090E00E9498
:10394000E1222091DB013091DC014091DD015091B9
:10395000DE016091DF017091E0018091E1019091C1
:10396000E2010E94CA2160E375E780E090E00E94D6
:103970007D238091170280618093170282E090E09E
:10398000909319028093180285C280911A02867062
:10399000843051F560E576E480E090E00E94E12219
:1039A0002091E3013091E4014091E5015091E6015D
:1039B0006091E7017091E8018091E9019091EA013D
:1039C0000E94CA2160E375E780E090E00E947D23B9
:1039D0008091170280628093170282E090E09093BA
:1039E00019028093180256C280911A0288708823A7
:1039F00041F560E576E480E090E00E94E1222091CC
:103A0000EB013091EC014091ED015091EE0160919C
:103A1000EF017091F0018091F1019091F2010E940B
:103A2000CA2168EC7FEA80E090E00E947D238091CB
:103A30001A02886080931A021092190210921802DA
:103A400029C280911A028670882309F023C260E59A
:103A500076E480E090E00E94E1222091E301309141
:103A6000E4014091E5015091E6016091E701709118
:103A7000E8018091E9019091EA010E94CA2168EC75
:103A80007FEA80E090E00E947D2380911A02897F86
:103A9000826080931A021092190210921802FAC1E1
:103AA0000E947B178CE890E061E041E00E94621781
:103AB00080911A028071882309F0B6C060E576E42F
:103AC00080E090E00E94E1222091F3013091F40126
:103AD0004091F5015091F6016091F7017091F80164
:103AE0008091F9019091FA010E94CA2168EC7FEA65
:103AF00080E090E00E947D2380911A028061809393
:103B00001A0280911A028078882309F441C020911A
:103B10000302309104024091050250910602609127
:103B20000702709108028091090290910A020E9496
:103B3000CA2168EC7FEA80E090E00E94E1222091B7
:103B4000F3013091F4014091F5015091F60160913B
:103B5000F7017091F8018091F9019091FA010E94AA
:103B6000CA2160E375E780E090E00E947D238091A8
:103B70001A028F7780931A028091170280648093D3
:103B8000170282E090E0909319028093180282C19C
:103B900080911A028076803209F041C02091FB01A9
:103BA0003091FC014091FD015091FE016091FF01B7
:103BB0007091000280910102909102020E94CA213C
:103BC00068EC7FEA80E090E00E94E1222091F3011E
:103BD0003091F4014091F5015091F6016091F701A7
:103BE0007091F8018091F9019091FA010E94CA2127
:103BF00060E375E780E090E00E947D2380911A02E7
:103C00008F7980931A028091170280648093170243
:103C100082E090E090931902809318023BC11092C9
:103C200019021092180236C180911A0280768823F8
:103C300009F030C160E576E480E090E00E94E12286
:103C40002091FB013091FC014091FD015091FE015A
:103C50006091FF0170910002809101029091020237
:103C60000E94CA2168EC7FEA80E090E00E947D23F8
:103C700080911A028F79806480931A0280911A02CF
:103C80008078882309F441C0209103023091040216
:103C9000409105025091060260910702709108025E
:103CA0008091090290910A020E94CA2168EC7FEA81
:103CB00080E090E00E94E1222091FB013091FC0124
:103CC0004091FD015091FE016091FF017091000251
:103CD00080910102909102020E94CA2160E375E77F
:103CE00080E090E00E947D2380911A028F7780937C
:103CF0001A028091170280688093170282E090E098
:103D00009093190280931802C5C010921902109264
:103D10001802C0C00E947B1786E990E061E041E094
:103D20000E94621780911A028071882351F160E528
:103D300076E480E090E00E94E1222091F30130914E
:103D4000F4014091F5015091F6016091F7017091F5
:103D5000F8018091F9019091FA010E94CA2160E373
:103D600075E780E090E00E947D23809117028064D7
:103D70008093170282E090E09093190280931802DA
:103D800089C080911A028076803451F560E576E42E
:103D900080E090E00E94E1222091FB013091FC0143
:103DA0004091FD015091FE016091FF017091000270
:103DB00080910102909102020E94CA2160E375E79E
:103DC00080E090E00E947D238091170280688093BC
:103DD000170282E090E090931902809318025AC073
:103DE00080911A028078882341F560E576E480E0CE
:103DF00090E00E94E1222091030230910402409160
:103E000005025091060260910702709108028091AC
:103E1000090290910A020E94CA2168EC7FEA80E0C0
:103E200090E00E947D2380911A02806880931A029C
:103E300010921902109218022DC080911A028076F9
:103E4000882341F560E576E480E090E00E94E1227D
:103E50002091FB013091FC014091FD015091FE0148
:103E60006091FF0170910002809101029091020225
:103E70000E94CA2168EC7FEA80E090E00E947D23E6
:103E800080911A028F79806280931A02109219022F
:103E9000109218020F900F900F90CF91DF9108951C
:103EA000DF93CF93CDB7DEB70E947B178FE990E009
:103EB00061E041E00E94621788E690E062E041E044
:103EC0000E946217809117028071882309F484C0D0
:103ED0008091170281708823B1F52091DB01309128
:103EE000DC014091DD015091DE016091DF017091B4
:103EF000E0018091E1019091E2010E94CA2168EC09
:103F00007FEA80E090E00E94E1222091BB013091A5
:103F1000BC014091BD015091BE016091BF01709103
:103F2000C0018091C1019091C2010E94CA2168EC38
:103F30007FEA80E090E00E947D23809117028160FB
:103F4000809317023AC08091170282708823A9F5E6
:103F50002091DB013091DC014091DD015091DE01C7
:103F60006091DF017091E0018091E1019091E201A7
:103F70000E94CA2168EC7FEA80E090E00E94E12282
:103F80002091C3013091C4014091C5015091C601F7
:103F90006091C7017091C8018091C9019091CA01D7
:103FA0000E94CA2168EC7FEA80E090E00E947D23B5
:103FB00080911702826080931702809117028F7E92
:103FC0008093170280911A028E7F80931A021092BA
:103FD0001902109218029DC18091170280728823E5
:103FE00009F484C08091170281708823B1F5209173
:103FF000E3013091E4014091E5015091E6016091C7
:10400000E7017091E8018091E9019091EA010E9435
:10401000CA2168EC7FEA80E090E00E94E1222091D2
:10402000BB013091BC014091BD015091BE01609136
:10403000BF017091C0018091C1019091C2010E94A5
:10404000CA2168EC7FEA80E090E00E947D238091A5
:1040500017028160809317023AC080911702827024
:104060008823A9F52091E3013091E4014091E50115
:104070005091E6016091E7017091E8018091E901BA
:104080009091EA010E94CA2168EC7FEA80E090E00A
:104090000E94E1222091C3013091C4014091C501E9
:1040A0005091C6016091C7017091C8018091C9010A
:1040B0009091CA010E94CA2168EC7FEA80E090E0FA
:1040C0000E947D2380911702826080931702809165
:1040D0001A02897F80931A02809117028F7D809344
:1040E0001702109219021092180213C18091170240
:1040F0008074882309F484C0809117028470882317
:10410000B1F52091F3013091F4014091F501509106
:10411000F6016091F7017091F8018091F901909199
:10412000FA010E94CA2168EC7FEA80E090E00E94D8
:10413000E1222091CB013091CC014091CD015091F1
:10414000CE016091CF017091D0018091D101909109
:10415000D2010E94CA2168EC7FEA80E090E00E94D0
:104160007D23809117028460809317023AC080916A
:10417000170288708823A9F52091F3013091F4018A
:104180004091F5015091F6016091F7017091F801AD
:104190008091F9019091FA010E94CA2168EC7FEAAE
:1041A00080E090E00E94E1222091D3013091D4017F
:1041B0004091D5015091D6016091D7017091D801FD
:1041C0008091D9019091DA010E94CA2168EC7FEABE
:1041D00080E090E00E947D238091170288608093A8
:1041E0001702809117028F7B8093170280911A0229
:1041F0008F7E80931A02109219021092180289C0C1
:10420000809117028078882309F483C08091170277
:1042100084708823B1F52091FB013091FC0140911D
:10422000FD015091FE016091FF01709100028091AB
:104230000102909102020E94CA2168EC7FEA80E0AC
:1042400090E00E94E1222091CB013091CC0140917D
:10425000CD015091CE016091CF017091D00180913C
:10426000D1019091D2010E94CA2168EC7FEA80E0DE
:1042700090E00E947D238091170284608093170252
:104280003AC08091170288708823A9F52091FB011C
:104290003091FC014091FD015091FE016091FF01C0
:1042A0007091000280910102909102020E94CA2145
:1042B00068EC7FEA80E090E00E94E1222091D30147
:1042C0003091D4014091D5015091D6016091D70130
:1042D0007091D8018091D9019091DA010E94CA2190
:1042E00068EC7FEA80E090E00E947D2380911702D5
:1042F000886080931702809117028F77809317024E
:1043000080911A028F7980931A02109219021092EA
:104310001802CF91DF910895DF93CF93CDB7DEB729
:1043200080910F0290911002A0911102B09112029F
:10433000883D27E4920723E0A20720E0B207C1F4FA
:1043400080E04CEE53EA61E070E020E00E944A1801
:1043500084E061E042E00E94511982E060E041E0C7
:104360000E94511980E060E040E00E9451190FC0A6
:1043700084E061E042E00E94511982E060E041E0A7
:104380000E94511980E060E040E00E945119CF91F5
:10439000DF910895DF93CF93CDB7DEB728970FB69F
:1043A000F894DEBF0FBECDBF29833A834B835C8375
:1043B0006D837E838F83988780910F029091100286
:1043C000A0911102B0911202803127E2920720E001
:1043D000A20720E0B207F1F48D819E81AF81B885FC
:1043E000883D23E5920721E0A20720E0B20791F47F
:1043F0002091DB013091DC014091DD015091DE0123
:104400006091DF017091E0018091E1019091E20102
:104410000E94CA212D813E814F81588580911302CF
:1044200090911402A0911502B09116028217930781
:10443000A407B50718F52D813E814F8158858091DD
:10444000130290911402A0911502B0911602281B3C
:10445000390B4A0B5B0B82E0BA01A90121E00E94F3
:104460004A188D819E81AF81B88580931302909305
:104470001402A0931502B093160233C02D813E8121
:104480004F8158858091130290911402A0911502DA
:10449000B0911602281739074A075B0710F52091DB
:1044A00013023091140240911502509116028D8131
:1044B0009E81AF81B885281B390B4A0B5B0B82E0CC
:1044C000BA01A90120E00E944A188D819E81AF8126
:1044D000B8858093130290931402A0931502B093B1
:1044E000160229813A814B815C8180910F02909163
:1044F0001002A0911102B091120282179307A40733
:10450000B50718F529813A814B815C8180910F02B2
:1045100090911002A0911102B0911202281B390B48
:104520004A0B5B0B80E0BA01A90121E00E944A1806
:1045300089819A81AB81BC8180930F029093100294
:10454000A0931102B093120233C029813A814B81AA
:104550005C8180910F0290911002A0911102B091A4
:104560001202281739074A075B0710F520910F023E
:1045700030911002409111025091120289819A816A
:10458000AB81BC81281B390B4A0B5B0B80E0BA0165
:10459000A90120E00E944A1889819A81AB81BC81DF
:1045A00080930F0290931002A0931102B093120215
:1045B00028960FB6F894DEBF0FBECDBFCF91DF9126
:1045C0000895DF93CF93CDB7DEB762970FB6F89417
:1045D000DEBF0FBECDBF6F87788B898B9A8B2F85FF
:1045E000388949895A8984E0BA01A90120E00E94EA
:1045F0004A1881E066E90E94D21780E090E0AAEFB5
:10460000B4E48B879C87AD87BE876B857C858D8561
:104610009E8520E030E04AE755E40E941F02DC015D
:10462000CB018F839887A987BA876F817885898521
:104630009A8520E030E040E85FE30E94250488236B
:104640002CF481E090E09E838D833FC06F8178855C
:1046500089859A8520E03FEF4FE757E40E94C50324
:1046600018164CF56B857C858D859E8520E030E0A5
:1046700040E251E40E941F02DC01CB01BC01CD01EC
:104680000E944900DC01CB019E838D830FC080E92D
:1046900091E09C838B838B819C810197F1F79C83B4
:1046A0008B838D819E8101979E838D838D819E81D9
:1046B000009769F714C06F81788589859A850E9473
:1046C0004900DC01CB019E838D838D819E819A837D
:1046D000898389819A810197F1F79A83898384E09C
:1046E00061E042E00E94511962960FB6F894DEBF75
:1046F0000FBECDBFCF91DF910895DF93CF93CDB79C
:10470000DEB7A0970FB6F894DEBF0FBECDBF6D8F9A
:104710007E8F8F8F98A32D8D3E8D4F8D58A184E075
:10472000BA01A90120E00E944A1880E090E0AAEFB7
:10473000B4E4898F9A8FAB8FBC8F698D7A8D8B8D06
:104740009C8D20E030E04AE755E40E941F02DC0126
:10475000CB018D8B9E8BAF8BB88F6D897E898F89B6
:10476000988D20E030E040E85FE30E942504882334
:104770002CF481E090E09C8B8B8B3FC06D897E890F
:104780008F89988D20E03FEF4FE757E40E94C503E3
:1047900018164CF5698D7A8D8B8D9C8D20E030E05C
:1047A00040E251E40E941F02DC01CB01BC01CD01BB
:1047B0000E944900DC01CB019C8B8B8B0FC080E9F0
:1047C00091E09A8B898B89899A890197F1F79A8B65
:1047D000898B8B899C8901979C8B8B8B8B899C897E
:1047E000009769F714C06D897E898F89988D0E9422
:1047F0004900DC01CB019C8B8B8B8B899C89988B2E
:104800008F878F8598890197F1F7988B8F8781E043
:1048100062E30E94D21780E090E0AAEFB4E48B87B5
:104820009C87AD87BE876B857C858D859E8520E0C6
:1048300030E04AE755E40E941F02DC01CB018F8380
:104840009887A987BA876F81788589859A8520E0BE
:1048500030E040E85FE30E94250488232CF481E0E7
:1048600090E09E838D833FC06F81788589859A858E
:1048700020E03FEF4FE757E40E94C50318164CF5C0
:104880006B857C858D859E8520E030E040E251E49B
:104890000E941F02DC01CB01BC01CD010E94490036
:1048A000DC01CB019E838D830FC080E991E09C8366
:1048B0008B838B819C810197F1F79C838B838D8106
:1048C0009E8101979E838D838D819E81009769F7DC
:1048D00014C06F81788589859A850E944900DC0122
:1048E000CB019E838D838D819E819A83898389816B
:1048F0009A810197F1F79A83898384E061E042E02D
:104900000E945119A0960FB6F894DEBF0FBECDBF1E
:10491000CF91DF910895DF93CF9300D0CDB7DEB76D
:104920000E943E1A80911802909119029A838983FD
:1049300089819A818130910571F089819A818130D4
:10494000910530F089819A818230910539F0EACF62
:104950000E946B1AE7CF0E941D1BE4CF0E94501FDC
:10496000E1CF629FD001739FF001829FE00DF11DA6
:10497000649FE00DF11D929FF00D839FF00D749FD9
:10498000F00D659FF00D9927729FB00DE11DF91F85
:10499000639FB00DE11DF91FBD01CF0111240895E2
:1049A000A1E21A2EAA1BBB1BFD010DC0AA1FBB1F33
:1049B000EE1FFF1FA217B307E407F50720F0A21BA5
:1049C000B30BE40BF50B661F771F881F991F1A9412
:1049D00069F760957095809590959B01AC01BD013C
:1049E000CF0108952F923F924F925F926F927F92E4
:1049F0008F929F92AF92BF92CF92DF92EF92FF92EF
:104A00000F931F93CF93DF93CDB7DEB7CA1BDB0B9A
:104A10000FB6F894DEBF0FBECDBF09942A8839883F
:104A200048885F846E847D848C849B84AA84B98446
:104A3000C884DF80EE80FD800C811B81AA81B98152
:104A4000CE0FD11D0FB6F894DEBF0FBECDBFED0166
:104A50000895FB019F01E8944230C4F04532B4F45C
:104A60004A3029F497FB1EF4909581959F4F642F4F
:104A700077270E945A25805D8A330CF0895D8193E7
:104A8000CB010097A1F716F45DE251931082C901A2
:104A90000C944A25DC01FC01672F71917723E1F723
:104AA000329704C07C916D9370836291AE17BF07FB
:104AB000C8F30895AA1BBB1B51E107C0AA1FBB1F67
:104AC000A617B70710F0A61BB70B881F991F5A959A
:104AD000A9F780959095BC01CD010895F894FFCF7A
:104AE00057414954494E47007374617465004153FE
:104AF00053454D424C5900677265656E2062617383
:104B00006500677265656E206C696400626C75652E
:104B1000206261736500626C7565206C6964005386
:104B2000544F524500000000000000000000010248
:104B30000203030303040404040404040405050538
:104B40000505050505050505050505050506060612
:104B500006060606060606060606060606060606F5
:104B600006060606060606060606060606070707E2
:104B700007070707070707070707070707070707C5
:104B800007070707070707070707070707070707B5
:104B900007070707070707070707070707070707A5
:104BA0000707070707070707070707070708080892
:104BB0000808080808080808080808080808080875
:104BC0000808080808080808080808080808080865
:104BD0000808080808080808080808080808080855
:104BE0000808080808080808080808080808080845
:104BF0000808080808080808080808080808080835
:104C00000808080808080808080808080808080824
:104C10000808080808080808080808080808080814
:104C20000808080808080808080808080803020017
:104C3000003F9C0000F0400000204038C10100709F
:104C4000170000109802007017000038C1010048DA
:104C5000710000109802004871000038C10100B8CE
:104C600005010010980200B8050100D8470300B8FC
:104C700005010038C10100D853010010980200D886
:0C4C8000530100D8470300D85301000086
:00000001FF
